{
  "contractName": "Carnivorous",
  "abi": [
    {
      "inputs": [],
      "name": "sleap",
      "outputs": [
        {
          "internalType": "string",
          "name": "",
          "type": "string"
        }
      ],
      "stateMutability": "pure",
      "type": "function"
    },
    {
      "inputs": [],
      "name": "speak",
      "outputs": [
        {
          "internalType": "string",
          "name": "",
          "type": "string"
        }
      ],
      "stateMutability": "pure",
      "type": "function"
    },
    {
      "inputs": [
        {
          "internalType": "string",
          "name": "food",
          "type": "string"
        }
      ],
      "name": "eat",
      "outputs": [
        {
          "internalType": "string",
          "name": "",
          "type": "string"
        }
      ],
      "stateMutability": "pure",
      "type": "function"
    }
  ],
  "bytecode": "0x608060405234801561001057600080fd5b5061065f806100206000396000f3fe608060405234801561001057600080fd5b50600436106100415760003560e01c806350d8531514610046578063728d9b74146100645780637b3c706314610094575b600080fd5b61004e6100b2565b60405161005b91906102fd565b60405180910390f35b61007e60048036038101906100799190610468565b6100ef565b60405161008b91906102fd565b60405180910390f35b61009c6101f1565b6040516100a991906102fd565b60405180910390f35b60606040518060400160405280600381526020017f2e2e2e0000000000000000000000000000000000000000000000000000000000815250905090565b60608173__StringCompare_________________________633a96fdd7826040518060400160405280600481526020017f6d656174000000000000000000000000000000000000000000000000000000008152506040518363ffffffff1660e01b81526004016101609291906104fb565b602060405180830381865af415801561017d573d6000803e3d6000fd5b505050506040513d601f19601f820116820180604052508101906101a1919061056a565b6101e0576040517f08c379a00000000000000000000000000000000000000000000000000000000081526004016101d790610609565b60405180910390fd5b6101e98361022e565b915050919050565b60606040518060400160405280600581526020017f5a2d7a2d7a000000000000000000000000000000000000000000000000000000815250905090565b60606040518060400160405280600781526020017f4e6f6d2d6e6f6d000000000000000000000000000000000000000000000000008152509050919050565b600081519050919050565b600082825260208201905092915050565b60005b838110156102a757808201518184015260208101905061028c565b60008484015250505050565b6000601f19601f8301169050919050565b60006102cf8261026d565b6102d98185610278565b93506102e9818560208601610289565b6102f2816102b3565b840191505092915050565b6000602082019050818103600083015261031781846102c4565b905092915050565b6000604051905090565b600080fd5b600080fd5b600080fd5b600080fd5b7f4e487b7100000000000000000000000000000000000000000000000000000000600052604160045260246000fd5b610375826102b3565b810181811067ffffffffffffffff821117156103945761039361033d565b5b80604052505050565b60006103a761031f565b90506103b3828261036c565b919050565b600067ffffffffffffffff8211156103d3576103d261033d565b5b6103dc826102b3565b9050602081019050919050565b82818337600083830152505050565b600061040b610406846103b8565b61039d565b90508281526020810184848401111561042757610426610338565b5b6104328482856103e9565b509392505050565b600082601f83011261044f5761044e610333565b5b813561045f8482602086016103f8565b91505092915050565b60006020828403121561047e5761047d610329565b5b600082013567ffffffffffffffff81111561049c5761049b61032e565b5b6104a88482850161043a565b91505092915050565b600082825260208201905092915050565b60006104cd8261026d565b6104d781856104b1565b93506104e7818560208601610289565b6104f0816102b3565b840191505092915050565b6000604082019050818103600083015261051581856104c2565b9050818103602083015261052981846104c2565b90509392505050565b60008115159050919050565b61054781610532565b811461055257600080fd5b50565b6000815190506105648161053e565b92915050565b6000602082840312156105805761057f610329565b5b600061058e84828501610555565b91505092915050565b7f5468697320616e696d616c2063616e607420656174207468617421286f6e6c7960008201527f206d656174290000000000000000000000000000000000000000000000000000602082015250565b60006105f3602683610278565b91506105fe82610597565b604082019050919050565b60006020820190508181036000830152610622816105e6565b905091905056fea26469706673582212206821a0b925c85c41f7fda56a13b3d8a7e1313c5af444e9c0e4ff2edaa4dca0e464736f6c63430008110033",
  "immutableReferences": {},
  "source": " // SPDX-License-Identifier: MIT\npragma solidity ^0.8.17;\n\nimport './Animal.sol';\nimport './StringCompare.sol';\n\ncontract Carnivorous is Animal {\n    string constant MEAT = \"meat\";\n\n\n    function eat(string memory food) override pure public onlyMeat(food) returns(string memory) {\n         return super.eat(food); // calling parent implementation \n     }\n\n    modifier onlyMeat(string memory food) {\n         require(StringCompare.compare(food, MEAT), \"This animal can`t eat that!(only meat)\");\n         _;\n     }\n}",
  "sourcePath": "/Users/roman/Documents/Study/WebDev/Node_js/r_d/lecture14DZ/contracts/Carnivorous.sol",
  "compiler": {
    "name": "solc",
    "version": "0.8.17+commit.8df45f5f.Emscripten.clang"
  },
  "schemaVersion": "3.4.11",
  "updatedAt": "2023-02-03T15:16:08.536Z",
  "devdoc": {
    "kind": "dev",
    "methods": {},
    "version": 1
  },
  "userdoc": {
    "kind": "user",
    "methods": {},
    "version": 1
  }
}