{
  "contractName": "Omnivores",
  "abi": [
    {
      "inputs": [],
      "name": "sleap",
      "outputs": [
        {
          "internalType": "string",
          "name": "",
          "type": "string"
        }
      ],
      "stateMutability": "pure",
      "type": "function"
    },
    {
      "inputs": [],
      "name": "speak",
      "outputs": [
        {
          "internalType": "string",
          "name": "",
          "type": "string"
        }
      ],
      "stateMutability": "pure",
      "type": "function"
    },
    {
      "inputs": [
        {
          "internalType": "string",
          "name": "food",
          "type": "string"
        }
      ],
      "name": "eat",
      "outputs": [
        {
          "internalType": "string",
          "name": "",
          "type": "string"
        }
      ],
      "stateMutability": "pure",
      "type": "function"
    }
  ],
  "bytecode": "0x608060405234801561001057600080fd5b50610715806100206000396000f3fe608060405234801561001057600080fd5b50600436106100415760003560e01c806350d8531514610046578063728d9b74146100645780637b3c706314610094575b600080fd5b61004e6100b2565b60405161005b91906103b3565b60405180910390f35b61007e6004803603810190610079919061051e565b6100ef565b60405161008b91906103b3565b60405180910390f35b61009c6102a7565b6040516100a991906103b3565b60405180910390f35b60606040518060400160405280600381526020017f2e2e2e0000000000000000000000000000000000000000000000000000000000815250905090565b60608173__StringCompare_________________________633a96fdd7826040518060400160405280600481526020017f6d656174000000000000000000000000000000000000000000000000000000008152506040518363ffffffff1660e01b81526004016101609291906105b1565b602060405180830381865af415801561017d573d6000803e3d6000fd5b505050506040513d601f19601f820116820180604052508101906101a19190610620565b80610257575073__StringCompare_________________________633a96fdd7826040518060400160405280600581526020017f706c616e740000000000000000000000000000000000000000000000000000008152506040518363ffffffff1660e01b81526004016102159291906105b1565b602060405180830381865af4158015610232573d6000803e3d6000fd5b505050506040513d601f19601f820116820180604052508101906102569190610620565b5b610296576040517f08c379a000000000000000000000000000000000000000000000000000000000815260040161028d906106bf565b60405180910390fd5b61029f836102e4565b915050919050565b60606040518060400160405280600581526020017f5a2d7a2d7a000000000000000000000000000000000000000000000000000000815250905090565b60606040518060400160405280600781526020017f4e6f6d2d6e6f6d000000000000000000000000000000000000000000000000008152509050919050565b600081519050919050565b600082825260208201905092915050565b60005b8381101561035d578082015181840152602081019050610342565b60008484015250505050565b6000601f19601f8301169050919050565b600061038582610323565b61038f818561032e565b935061039f81856020860161033f565b6103a881610369565b840191505092915050565b600060208201905081810360008301526103cd818461037a565b905092915050565b6000604051905090565b600080fd5b600080fd5b600080fd5b600080fd5b7f4e487b7100000000000000000000000000000000000000000000000000000000600052604160045260246000fd5b61042b82610369565b810181811067ffffffffffffffff8211171561044a576104496103f3565b5b80604052505050565b600061045d6103d5565b90506104698282610422565b919050565b600067ffffffffffffffff821115610489576104886103f3565b5b61049282610369565b9050602081019050919050565b82818337600083830152505050565b60006104c16104bc8461046e565b610453565b9050828152602081018484840111156104dd576104dc6103ee565b5b6104e884828561049f565b509392505050565b600082601f830112610505576105046103e9565b5b81356105158482602086016104ae565b91505092915050565b600060208284031215610534576105336103df565b5b600082013567ffffffffffffffff811115610552576105516103e4565b5b61055e848285016104f0565b91505092915050565b600082825260208201905092915050565b600061058382610323565b61058d8185610567565b935061059d81856020860161033f565b6105a681610369565b840191505092915050565b600060408201905081810360008301526105cb8185610578565b905081810360208301526105df8184610578565b90509392505050565b60008115159050919050565b6105fd816105e8565b811461060857600080fd5b50565b60008151905061061a816105f4565b92915050565b600060208284031215610636576106356103df565b5b60006106448482850161060b565b91505092915050565b7f5468697320616e696d616c2063616e607420656174207468617421286f6e6c7960008201527f206d65617420616e6420706c616e742900000000000000000000000000000000602082015250565b60006106a960308361032e565b91506106b48261064d565b604082019050919050565b600060208201905081810360008301526106d88161069c565b905091905056fea2646970667358221220daf2fbca26e4ca15e2658c7238203e836bcc805626d4fc460eea5de1e0f256a264736f6c63430008110033",
  "immutableReferences": {},
  "source": " // SPDX-License-Identifier: MIT\npragma solidity ^0.8.17;\n\nimport './Animal.sol';\nimport './StringCompare.sol';\n\ncontract Omnivores is Animal {\n    string constant MEAT = \"meat\";\n    string constant PLANT = \"plant\";\n\n\n    function eat(string memory food) virtual override pure public meatAndPlant(food) returns(string memory) {\n         return super.eat(food); // calling parent implementation \n     }\n\n    modifier meatAndPlant (string memory food) {\n         require(StringCompare.compare(food, MEAT) || StringCompare.compare(food, PLANT), \"This animal can`t eat that!(only meat and plant)\");\n         _;\n     }\n}",
  "sourcePath": "/Users/roman/Documents/Study/WebDev/Node_js/r_d/lecture14DZ/contracts/Omnivores.sol",
  "compiler": {
    "name": "solc",
    "version": "0.8.17+commit.8df45f5f.Emscripten.clang"
  },
  "schemaVersion": "3.4.11",
  "updatedAt": "2023-02-03T15:16:08.542Z",
  "devdoc": {
    "kind": "dev",
    "methods": {},
    "version": 1
  },
  "userdoc": {
    "kind": "user",
    "methods": {},
    "version": 1
  }
}